:100000000C94C4090C94F5090C94F5090C94F509A9
:100010000C94F5090C94F5090C94F5090C94F50968
:100020000C94F5090C94F5090C94F5090C94F50958
:100030000C94F5090C94F5090C94F5090C94F50948
:100040000C94F5090C94F5090C94F5090C94F50938
:100050000C94F5090C94F5090C94F5090C947F1B8C
:100060000C94F5090C94B02E0C94872E0C94F50981
:100070000C94F5090C94F5090C94F5090C94F50908
:100080000C94F5090C94F5090C94F5090C94F509F8
:100090000C94F5090C94F5090C94F5090C94F509E8
:1000A0000C94F5090C94F5090C94F5090C94F509D8
:1000B0000C94F5090C94F5090C94F5090C94F509C8
:1000C0000C94F5090C94F5090C94F5090C94F509B8
:1000D0000C94F5090C94F5090C94F5090C94F509A8
:1000E0000C94F509C41AC71AB61ABA1AC01AFE1A1D
:1000F000CB1ACF1AD51AD91ADD1AE31AE71AEB1A56
:10010000FE1AF11AF51AF91A00002100240027003E
:100110002A002D0030003300010100000401070116
:100120000A01080C205F0000000000000000000031
:1001300000000000202020202020002000000028B7
:100140005050000000000000000000002828FC289B
:1001500050FC50500000002078A8A0603028A8F083
:100160002000000048A8B050283454480000000087
:1001700020505078A8A8906C0000004040800000FB
:1001800000000000000000040810101010101008FB
:10019000040000402010101010101020400000003B
:1001A0000020A87070A8200000000000202020F887
:1001B000202020000000000000000000000000409F
:1001C00040800000000000F8000000000000000077
:1001D0000000000000000040000000081010102087
:1001E000204040408000000070888888888888709F
:1001F000000000002060202020202070000000006F
:1002000070888810204080F8000000007088083056
:1002100008088870000000001030505090781018C6
:1002200000000000F88080F00808887000000000DE
:10023000709080F08888887000000000F89010208E
:100240002020202000000000708888708888887036
:10025000000000007088888878084870000000005E
:10026000000020000000002000000000000000202E
:100270000000002020000004081020402010080486
:10028000000000000000F80000F80000000000403E
:10029000201008040810204000000000708888101A
:1002A0002020002000000000708898A8A8B880785E
:1002B0000000000020203050507848CC00000000A2
:1002C000F0484870484848F0000000007888808076
:1002D0008080887000000000F0484848484848F096
:1002E00000000000F8485070504048F8000000003E
:1002F000F8485070504040E00000000038488080CE
:100300009C88483000000000CC484878484848CCD9
:1003100000000000F8202020202020F8000000002D
:100320007C10101010101090E0000000EC4850609D
:10033000505048EC00000000E0404040404044FC89
:1003400000000000D8D8D8D8A8A8A8A800000000AD
:10035000DC486868585848E80000000070888888C1
:100360008888887000000000F0484870404040E0F5
:10037000000000007088888888E8987018000000E5
:10038000F0484870504848EC0000000078888060D1
:10039000100888F000000000F8A82020202020701D
:1003A00000000000CC4848484848483000000000A1
:1003B000CC4848505030202000000000A8A8A87069
:1003C0005050505000000000D8505020205050D8BD
:1003D00000000000D85050202020207000000000B5
:1003E000F8901020204048F80000003820202020FD
:1003F000202020203800004040402020101010080D
:10040000000000701010101010101010700000206C
:10041000500000000000000000000000000000008C
:100420000000000000FC00200000000000000000B0
:1004300000000000000000304838483C0000000088
:10044000C04040704848487000000000000000387C
:100450004840403800000000180808384848483C28
:100460000000000000000030487840380000000024
:100470001C20207820202078000000000000003C94
:100480004830407844380000C0404070484848EC4C
:10049000000000002000006020202070000000000C
:1004A000100000301010101010E00000C040405C40
:1004B000507048EC00000000E0202020202020F8B0
:1004C00000000000000000F0A8A8A8A8000000009C
:1004D000000000F0484848EC000000000000003038
:1004E0004848483000000000000000F048484870CC
:1004F00040E000000000003848484838081C000070
:10050000000000D8604040E00000000000000078DB
:1005100040300878000000000020207020202018C3
:1005200000000000000000D84848483C00000000DF
:10053000000000EC4850302000000000000000A83F
:10054000A870505000000000000000D8502050D883
:1005500000000000000000EC4850302020C00000E7
:1005600000000078102020780000001810101020E3
:100570001010101018001010101010101010101083
:10058000101000602020201020202020600040A4B7
:10059000180000000000000000001010205F0000A4
:1005A000000000000000000000000000000000004B
:1005B000000000000000000000000000000000003B
:1005C000000007000F800F800F800F800F80070052
:1005D00007000000000007000700070000000000FF
:1005E0000E380E380E380E380630000000000000BD
:1005F00000000000000000000000000000000000FB
:100600000C300C300C307FFE7FFE0C300C300C3088
:100610000C307FFE7FFE0C300C300C3000000000F0
:10062000024002400FF81FF81A401A401FF00FF85E
:10063000025802581FF81FF002400240000000005C
:10064000000000000E100E300E7000E001C00380AC
:1006500007000E700C700870000000000000000021
:1006600000000F001980198019800F000F080F98E3
:1006700019F818F018E019F00F98000000000000B9
:1006800000000700070007000E0000000000000047
:10069000000000000000000000000000000000005A
:1006A000000000F001C0038007000E000E000E00E5
:1006B0000E000700038001C000F0000000000000F1
:1006C00000000F00038001C000E0007000700070A7
:1006D000007000E001C003800F0000000000000077
:1006E000000001801188099007E007E03FFC3FFC13
:1006F00007E007E009901188018000000000000079
:100700000000000000000180018001800FF00FF068
:100710000180018001800000000000000000000056
:1007200000000000000000000000000000000000C9
:10073000000000000700070007000E000000000096
:100740000000000000000000000000001FF81FF87B
:100750000000000000000000000000000000000099
:100760000000000000000000000000000000000089
:100770000000000007000700070000000000000064
:10078000000000020006000E001C0038007000E0AF
:1007900001C0038007000E001C00000000000000E4
:1007A00000000FF01C381C781CF81CF81DB81DB890
:1007B0001F381F381E381C380FF0000000000000E2
:1007C00000000180018003801F801F800380038060
:1007D00003800380038003801FF0000000000000FE
:1007E00000000FE01C701C380038007000E001C0F1
:1007F000038007000E381C381FF8000000000000BE
:1008000000000FE01C701C380038007003C003C0EB
:10081000007000381C381C700FE000000000000061
:10082000000000E001E003E006E00CE018E01FF843
:100830001FF800E000E000E003F800000000000006
:1008400000001FF81C001C001C001C001FE01FF013
:10085000007800381C381C700FE000000000000019
:10086000000003E007000E001C001C001FF01FF832
:100870001C381C381C381C380FF000000000000029
:1008800000001FFC1C1C1C1C1C1C001C00380070E1
:1008900000E001C00380038003800000000000002E
:1008A00000000FF01C381C381C381F3807E007E028
:1008B0001CF81C381C381C380FF000000000000029
:1008C00000000FF01C381C381C381C381FF80FF8BB
:1008D00000380038007000E007C000000000000091
:1008E000000000000000038003800380000000007F
:1008F000038003800380000000000000000000006F
:10090000000000000000038003800380000000005E
:100910000380038003800700000000000000000047
:10092000007000E001C0038007000E001C001C00E6
:100930000E000700038001C000E00070000000000E
:1009400000000000000000003FFC3FFC0000000031
:100950003FFC3FFC00000000000000000000000021
:100960001C000E000700038001C000E00070007052
:1009700000E001C0038007000E001C000000000022
:1009800003C00FF01E7818380038007000E001C076
:1009900001C00000000001C001C001C00000000053
:1009A0000FF81C1C1C1C1C1C1C1C1CFC1CFC1CFC18
:1009B0001CFC1C001C001C001FF007F800000000BD
:1009C000000003C007E00E701C381C381C381C38AF
:1009D0001FF81C381C381C381C38000000000000B0
:1009E00000001FF00E380E380E380E380FF00FF0E2
:1009F0000E380E380E380E381FF0000000000000D0
:100A0000000007F00E381C381C001C001C001C00E5
:100A10001C001C001C380E3807F00000000000000D
:100A200000001FE00E700E380E380E380E380E38EB
:100A30000E380E380E380E701FE000000000000067
:100A400000001FF80E180E080E000E300FF00FF009
:100A50000E300E000E080E181FF8000000000000F7
:100A600000001FF80E180E080E000E300FF00FF0E9
:100A70000E300E000E000E001F00000000000000EF
:100A8000000007F00E381C381C381C001C001C002D
:100A90001CF81C381C380E3807F800000000000055
:100AA00000001C701C701C701C701C701FF01FF06C
:100AB0001C701C701C701C701C700000000000007A
:100AC00000000FE003800380038003800380038025
:100AD00003800380038003800FE00000000000001B
:100AE000000001FC00700070007000700070007069
:100AF00038703870387038700FE000000000000067
:100B000000001E380E380E700EE00FC00F800F80F0
:100B10000FC00EE00E700E381E38000000000000FE
:100B200000001F000E000E000E000E000E000E0052
:100B30000E000E080E180E381FF80000000000000E
:100B400000001C1C1E3C1F7C1FFC1FFC1DDC1C9C91
:100B50001C1C1C1C1C1C1C1C1C1C0000000000007D
:100B600000001C1C1C1C1E1C1F1C1F9C1DDC1CFCD4
:100B70001C7C1C3C1C1C1C1C1C1C000000000000DD
:100B8000000003E007F00E381C1C1C1C1C1C1C1C65
:100B90001C1C1C1C0E3807F003E0000000000000C5
:100BA00000001FF00E380E380E380E380FF00FF020
:100BB0000E000E000E000E001F00000000000000DE
:100BC000000003E00F780E381C1C1C1C1C1C1C1C95
:100BD0001C7C1CFC0FF80FF8003800FC0000000023
:100BE00000001FF00E380E380E380E380FF00FF0E0
:100BF0000E700E380E380E381E380000000000004F
:100C000000000FF01C381C381C381C000FE007F0E7
:100C100000381C381C381C380FF0000000000000A1
:100C200000001FFC19CC11C401C001C001C001C0EB
:100C300001C001C001C001C007F0000000000000B9
:100C400000001C701C701C701C701C701C701C70D0
:100C50001C701C701C701C700FE000000000000075
:100C600000001C701C701C701C701C701C701C70B0
:100C70001C701C700EE007C0038000000000000024
:100C800000001C1C1C1C1C1C1C1C1C1C1C9C1C9CDC
:100C90001C9C0FF80FF807700770000000000000A0
:100CA00000001C701C701C700EE007C003800380E5
:100CB00007C00EE01C701C701C70000000000000DB
:100CC00000001C701C701C701C701C700EE007C0B3
:100CD00003800380038003800FE000000000000019
:100CE00000001FF81C381838107000E001C00380A5
:100CF00007000E081C181C381FF800000000000038
:100D0000000007F0070007000700070007000700C2
:100D1000070007000700070007F0000000000000C0
:100D20000000100018001C000E000700038001C026
:100D300000E000700038001C000700000000000008
:100D4000000007F00070007000700070007000700C
:100D5000007000700070007007F0000000000000DC
:100D6000018003C007E00E701C3800000000000086
:100D70000000000000000000000000000000000073
:100D80000000000000000000000000000000000063
:100D9000000000000000000000007FFF7FFF000057
:100DA00000001C001C0007000700000000000000FD
:100DB0000000000000000000000000000000000033
:100DC000000000000000000000000FE00070007054
:100DD0000FF01C701C701C700FD800000000000089
:100DE00000001E000E000E000E000FF00E380E3830
:100DF0000E380E380E380E381BF0000000000000D0
:100E0000000000000000000000000FE01C701C70DB
:100E10001C001C001C701C700FE000000000000093
:100E2000000000F80070007000700FF01C701C7063
:100E30001C701C701C701C700FD80000000000009B
:100E4000000000000000000000000FE01C701C709B
:100E50001FF01C001C701C700FE000000000000060
:100E6000000003E007700770070007001FE01FE0A5
:100E700007000700070007001FC000000000000077
:100E8000000000000000000000000FD81C701C7063
:100E90001C701C700FF007F000701C700FE0000059
:100EA00000001E000E000E000E000EF00F380F386E
:100EB0000E380E380E380E381E38000000000000C4
:100EC000000001C001C001C000000FC001C001C08E
:100ED00001C001C001C001C00FF800000000000007
:100EE0000000007000700070000003F000700070DF
:100EF00000700070007000701C700CF007E00000C3
:100F000000001E000E000E000E000E380E700EE0E7
:100F10000FC00EE00E700E381E38000000000000FA
:100F200000000FC001C001C001C001C001C001C06C
:100F300001C001C001C001C00FF8000000000000A6
:100F4000000000000000000000001FF81C9C1C9C1A
:100F50001C9C1C9C1C9C1C9C1C9C000000000000F9
:100F6000000000000000000000001FE01C701C706A
:100F70001C701C701C701C701C70000000000000B5
:100F8000000000000000000000000FE01C701C705A
:100F90001C701C701C701C700FE000000000000032
:100FA000000000000000000000001BF00E380E38AA
:100FB0000E380E380E380FF00E000E001F00000025
:100FC000000000000000000000001FB038E038E022
:100FD00038E038E038E01FE000E000E001F0000019
:100FE000000000000000000000001EF00FF80F38A5
:100FF0000E000E000E000E001F000000000000009A
:10100000000000000000000000000FE01C301C3059
:101010000F8003E0187018700FE00000000000005F
:10102000000000000100030007001FF00700070098
:10103000070007000770077003E0000000000000D1
:10104000000000000000000000001C701C701C70FC
:101050001C701C701C701C700FD800000000000079
:10106000000000000000000000001C701C701C70DC
:101070001C701C700EE007C0038000000000000020
:10108000000000000000000000001C1C1C1C1C1CB8
:101090001C9C1C9C0FF807700770000000000000EB
:1010A000000000000000000000001CE01CE00FC079
:1010B000078007800FC01CE01CE00000000000005B
:1010C000000000000000000000000E380E380E384E
:1010D0000E380E3807F003E000E001C01F8000006A
:1010E000000000000000000000001FE018E011C038
:1010F000038007000E201C601FE0000000000000BD
:10110000000001F803800380038007001C001C001E
:10111000070003800380038001F800000000000046
:1011200001C001C001C001C001C001C001C001C0B7
:1011300001C001C001C001C001C001C00000000029
:1011400000001F8001C001C001C000E0003800386D
:1011500000E001C001C001C01F80000000000000CD
:1011600000001F1C3B9C39DC38F800000000000028
:101170000000000000000000000000000000005E11
:10118000BCE2613FDD83C29C7E20A3FD1F419DC365
:10119000217FFCA2401E5F01E3BD3E6082DC237D17
:1011A0009FC1421CFEA0E1BF5D0380DE3C62BEE049
:1011B000025CDF81633D7C22C09E1D43A1FF461877
:1011C000FAA427799BC584DA3866E5BB5907DB8525
:1011D0006739BAE406581947A5FB7826C49A653BD7
:1011E000D987045AB8E6A7F91B45C6987A24F8A609
:1011F000441A99C7257B3A6486D85B05E7B98CD237
:10120000306EEDB3510F4E10F2AC2F7193CD114FE4
:10121000ADF3702ECC92D38D6F31B2EC0E50AFF196
:10122000134DCE90722C6D33D18F0C52B0EE326CC8
:101230008ED0530DEFB1F0AE4C1291CF2D73CA94F6
:101240007628ABF517490856B4EA6937D58B5709A4
:10125000EBB536688AD495CB2977F4AA4816E9B756
:10126000550B88D6346A2B7597C94A14F6A8742A88
:10127000C896154BA9F7B6E80A54D7896B35010211
:101280001020200808102040102040800201020198
:101290000804020101020408102040808040201050
:1012A00008040201800402018040201008040201A9
:1012B0000804020101020408102040800102040811
:1012C0001020408000002200250028002B002E0066
:1012D0003100340002010000050108010B01050581
:1012E0000505070508080808020202020A0A08089C
:1012F00004040404010101010101010103030303CA
:1013000003030303040707070C0C0C0C0C0C0C0C58
:101310000202020206060606060606060B0B0B0B69
:101320000B0B0B0B000020002300260029002C00D3
:101330002F00320000010000030106010901000036
:101340000A0B02090C0D0E0807030401000000003F
:10135000000000000000000000000000000000008D
:10136000000000000000000000001211100000004A
:10137000000000000000000000000000000000006D
:10138000000000005542E94311241FBECFEFD1E217
:10139000DEBFCDBF00E00CBF14E0A0E0B2E0E0EEA5
:1013A000F2E900E00BBF02C007900D92A23AB1072C
:1013B000D9F728E0A2EAB4E001C01D92AC30B20730
:1013C000E1F719E0C3ECD9E000E006C0219701097C
:1013D000802FFE010E942344C23CD10780E0080711
:1013E000A9F70E94BC3D0C945F490C9400002F9219
:1013F0003F924F925F926F927F928F929F92AF92A5
:10140000BF92CF92DF92EF92FF920F931F93CF93F1
:10141000DF93CDB7DEB7CC55D1090FB6F894DEBF58
:101420000FBECDBF2DB73EB769963FAF2EAF6997C0
:10143000C090C004D090C104E090C204F090C304F6
:101440000E94731B6C157D058E059F0540F410925C
:10145000C0041092C1041092C2041092C3040E94EE
:10146000612A882309F43CC10E94731B6B017C0133
:101470008091D1069091D206A091D306B091D40666
:10148000A7019601281B390B4A0B5B0BDA01C90136
:1014900089399A43A105B105A8F48091CD069091B0
:1014A000CE06A091CF06B091D006A7019601281BC9
:1014B000390B4A0B5B0BDA01C90189399A43A10543
:1014C000B105C8F12091D5068091490690914A0650
:1014D000222371F02CEF3FEF3093E5062093E406D2
:1014E000DC01ED91FC910288F389E02D1995F8C09B
:1014F00020EC20934B0610924C06DC01ED91FC9100
:101500000280F381E02D42E050E06BE476E0199533
:10151000C092CD06D092CE06E092CF06F092D006D1
:10152000C092D106D092D206E092D306F092D406B1
:1015300081E08093D5068091490690914A06DC01AE
:10154000ED91FC910480F581E02D1995892B09F42A
:10155000C7C0CE0101960E94A11E8C01892B09F4FF
:10156000BFC0C092D106D092D206E092D306F092CC
:10157000D40690904B06892D807F803309F095C06A
:101580004090D6065090D7064114510409F4A8C0E3
:101590006DB67EB6A981B0E0CD01875B994FFC01A5
:1015A000A380B12CBA2CAA248481A80EB11CC50139
:1015B00001962DB73EB7281B390B0FB6F8943EBFE6
:1015C0000FBE2DBF8DB79EB70196BC0120E030E065
:1015D0002A153B0569F0A9014A0F5B1F475B594F6C
:1015E000FA014581FB014193BF012F5F3F4FF0CFCF
:1015F000AC01420F531FFA011082F92DF6703F2EF5
:1016000042E0F4133DC05901AA0EBB1EB501675B51
:10161000794FFB01458150E0542F442766814A01F0
:10162000860E911C4BEF5FEF4A1B5B0B421B530B6B
:10163000400F511FB501605B794FF201199580E4AD
:1016400080934B0630924C0690924D0680924E0647
:101650008091490690914A06DC01ED91FC9102804F
:10166000F381E02D44E050E06BE476E01995C09200
:10167000CD06D092CE06E092CF06F092D0060FC0F3
:101680004DEF5FEF4A1B5B0B421B530B400F511F8B
:101690002A0F3B1FB901625B794FF20119950FB612
:1016A000F8947EBE0FBE6DBE1BC0803CA9F480EDD9
:1016B00080934B0610924C068091490690914A0601
:1016C000DC01ED91FC910280F381E02D42E050E0DD
:1016D0006BE476E0199504C0803D11F41092D506B4
:1016E0000E94731B0091C0041091C1042091C20498
:1016F0003091C304005A15412F4F3F4F061717076B
:101700002807390798F40E94612A811105C00E94B8
:10171000741F81110E94311E0E94731B6093C004CC
:101720007093C1048093C2049093C30480E30E9429
:10173000E62E0E94731B0091080510910905209167
:101740000A0530910B05DC01CB01801B910BA20B2C
:10175000B30B813A9B4BAD40B10508F440C08EE21B
:101760000E94E62E8C010E94B53D429734F0013074
:10177000110511F00C94B21906C00E94B53D0A97EC
:10178000B4F30C94B2198091BF0481111BC08091F5
:10179000A304811104C081E090E00E94813B80910C
:1017A000A204811104C082E090E00E94813B0E946B
:1017B000612A882321F087E093E00E945F1E81E088
:1017C0008093BF040E94731B60930C0570930D05FA
:1017D00080930E0590930F0581E08093BE0482E311
:1017E0000E94E62E8C010E94731BC0900405D090CD
:1017F0000505E0900605F0900705DC01CB018C198A
:101800009D09AE09BF09893E9340A105B105D8F0F5
:101810000130110539F48091A30481110AC010929E
:10182000A30417C00115110589F48091A304811147
:101830000DC00E94731B6093080570930905809387
:101840000A0590930B050130110549F381E080935F
:10185000A30483E30E94E62E8C010E94731BC090B8
:101860000405D0900505E0900605F0900705DC0121
:10187000CB018C199D09AE09BF09893E9340A10592
:10188000B10508F10130110539F48091A2048111EC
:101890000AC01092A2041DC001151105B9F480916F
:1018A000A204811113C09091A20481E08927809342
:1018B000A2040E94731B609308057093090580932E
:1018C0000A0590930B050130110519F381E080930F
:1018D000A2040E94731B0091BA041091BB042091D2
:1018E000BC043091BD04DC01CB01801B910BA20B29
:1018F000B30B89389341A105B10590F08AE297E0D6
:101900000E94A72587E197E00E94A7250E94731BEC
:101910006093BA047093BB048093BC049093BD049D
:101920000E94731B0091BA041091BB042091BC0467
:101930003091BD04DC01CB01801B910BA20BB30BDA
:1019400081329340A105B10508F4CAC04AE0A42E33
:1019500042E0B42E00E010E0B5018AE297E00E9478
:101960000B266B017C0120E030E0A9010E94C844F5
:10197000181664F520E030E048EC52E4C701B601E7
:101980000E94E64787FF22C0C701B6010E94974424
:10199000F801EE50FB4F71836083072E000C880B1B
:1019A000990B0E94EC479B01AC01C701B6010E9454
:1019B000324420E030E048EC52E40E944B480E9460
:1019C0009744F801E052FB4F7183608358E0A50E05
:1019D000B11C0E5F1F4F0231110509F0BDCF6AE542
:1019E00072E087E197E00E940B266B017C0120E00A
:1019F00030E04CE852EC0E94C844181654F520E040
:101A000030E046E153E4C701B6010E94E64787FF94
:101A100020C0C701B6010E9497447093DF04609311
:101A2000DE04072E000C880B990B0E94EC479B01EB
:101A3000AC01C701B6010E94324420E030E048EC1E
:101A400052E40E944B480E9497447093DD046093D7
:101A5000DC0462E572E087E197E00E940B266B01EF
:101A60007C0120E030E04CE852EC0E94C84418169B
:101A700054F520E030E046E153E4C701B6010E948E
:101A8000E64787FF20C0C701B6010E9497447093C4
:101A9000DB046093DA04072E000C880B990B0E947C
:101AA000EC479B01AC01C701B6010E94324420E023
:101AB00030E048EC52E40E944B480E9497447093F7
:101AC000D9046093D8048091D8049091D90497FFE9
:101AD00007C09195819591099093D9048093D8047A
:101AE0001092B9041092B8048FEF8093E6068093A9
:101AF000E70688EF8093E8061092E9061092160731
:101B000068E873E0CE01C6960E948F2DBE016A5C24
:101B10007F4FCE0101960E94872D41E050E06EE09C
:101B200077E2CE0101960E94F438CE0101960E9420
:101B3000132D0E94E9270E94C83C6091CE0770E0F7
:101B4000CE018C5A9F4F0E94753B6AE3CE01CC9622
:101B50000E946F2DBE016C5A7F4FCE01C0960E942D
:101B60008F2D6AE3CE018A960E946F2D0E94B53DAB
:101B70004AE0BC01CE0101960E94182DBE016F5FA4
:101B80007F4FCE0182960E94872DBE01665D7F4FFA
:101B9000CE0182960E949F2CBE01605D7F4F0E9405
:101BA0009F2CBE01645C7F4F0E949F2CBC01CE0124
:101BB000C6960E94C52CCE0182960E94132DCE019E
:101BC00001960E94132DCE018A960E94132DCE01FC
:101BD000C0960E94132DCE01CC960E94132D0E9418
:101BE000E9270E94C83C6091CD0770E0CE018C5A75
:101BF0009F4F0E94753BBE016C5A7F4FCE0182966B
:101C00000E948F2DBE016A5C7F4FCE0101960E941B
:101C1000872DBE016E5D7F4FCE0101960E949F2CE5
:101C2000BC01CE01C6960E94C52CCE0101960E9431
:101C3000132DCE0182960E94132D409108025091DF
:101C400009022091B8043091B904429FC001439F1A
:101C5000900D529F900D1124AC01440F551F480F59
:101C6000591F57FF02C04F5F5F4F559547958A0137
:101C70000F5F1F4FBE016A5C7F4FCE0101960E942D
:101C8000872DA8016EE077E2CE0101960E94F4381C
:101C9000CE0101960E94132D1092E8061092E906DB
:101CA000109216076EE073E0CE0101960E948F2D10
:101CB000BE016F5F7F4FCE01C6960E94DA2CCE0127
:101CC00001960E94132D8091080290910902AC01A7
:101CD000440F551F480F591F57FF02C04F5F5F4FFA
:101CE000559547958A010F5F1F4FBE016A5C7F4F74
:101CF000CE0101960E94872DA80161E070E0CE011F
:101D000001960E94F438CE0101960E94132D82E0C4
:101D100090E09093B9048093B80465E273E0CE013B
:101D200001960E948F2DBE016F5F7F4FCE01C69638
:101D30000E94DA2CCE0101960E94132D12EFE12EA3
:101D400014E0F12E00EEC02E04E0D02E56018701E3
:101D5000D8016D917D918D01CE018C5A9F4F0E94CB
:101D6000753B6EE2CE018A960E946F2DBE016C5AC1
:101D70007F4FCE0182960E948F2DBE016A5C7F4FFD
:101D8000CE0101960E94872DBE016E5D7F4FCE0170
:101D900001960E949F2CBE01665D7F4F0E949F2C82
:101DA000BC01CE01C6960E94C52CCE0101960E94B0
:101DB000132DCE0182960E94132DCE018A960E9489
:101DC000132DF501619171915F01CE018C5A9F4FE6
:101DD0000E94753B60E2CE018A960E946F2DBE0183
:101DE0006C5A7F4FCE0182960E948F2DBE016A5C95
:101DF0007F4FCE0101960E94872DBE016E5D7F4F01
:101E0000CE0101960E949F2CBE01665D7F4F0E940D
:101E10009F2CBC01CE01C6960E94C52CCE01019616
:101E20000E94132DCE0182960E94132DCE018A9618
:101E30000E94132DF4E0083F1F0709F089CF40915D
:101E4000080250910902440F551FCA01880F991FBB
:101E5000480F591F57FF02C04F5F5F4F5595479579
:101E60008A010F5F1F4FBE016A5C7F4FCE01019652
:101E70000E94872DA80161E070E0CE0101960E94CA
:101E8000F438CE0101960E94132D6DE273E0CE016D
:101E900001960E948F2DBE016F5F7F4FCE01C696C7
:101EA0000E94DA2CCE0101960E94132D00E010E072
:101EB000F801EE50FB4F66817781CE018C5A9F4F1F
:101EC0000E94753B6EE2CE018A960E946F2DBE0184
:101ED0006C5A7F4FCE0182960E948F2DBE016A5CA4
:101EE0007F4FCE0101960E94872DBE016E5D7F4F10
:101EF000CE0101960E949F2CBE01665D7F4F0E941D
:101F00009F2CBC01CE01C6960E94C52CCE01019625
:101F10000E94132DCE0182960E94132DCE018A9627
:101F20000E94132DF801E052FB4F66817781CE01AC
:101F30008C5A9F4F0E94753B60E2CE018A960E94A8
:101F40006F2DBE016C5A7F4FCE0182960E948F2D5D
:101F5000BE016A5C7F4FCE0101960E94872DBE01B3
:101F60006E5D7F4FCE0101960E949F2CBE01665D83
:101F70007F4F0E949F2CBC01CE01C6960E94C52CAB
:101F8000CE0101960E94132DCE0182960E94132D40
:101F9000CE018A960E94132D0E5F1F4F0630110549
:101FA00009F086CF8091080290910902AC01440F9C
:101FB000551F480F591FCA01880F991F480F591FF5
:101FC00057FF02C04F5F5F4F559547958A010F5FDE
:101FD0001F4FBE016A5C7F4FCE0101960E94872D84
:101FE000A80161E070E0CE0101960E94F438CE01B4
:101FF00001960E94132D65E373E0CE0101960E94C5
:102000008F2DBE016F5F7F4FCE01C6960E94DA2CE6
:10201000CE0101960E94132D00E010E0F801EE5071
:10202000FB4F64857585CE018C5A9F4F0E94753B8E
:102030006EE2CE018A960E946F2DBE016C5A7F4FD0
:10204000CE0182960E948F2DBE016A5C7F4FCE0129
:1020500001960E94872DBE016E5D7F4FCE010196D5
:102060000E949F2CBE01665D7F4F0E949F2CBC0189
:10207000CE01C6960E94C52CCE0101960E94132D5A
:10208000CE0182960E94132DCE018A960E94132DB6
:10209000F801E052FB4F64857585CE018C5A9F4F45
:1020A0000E94753B60E2CE018A960E946F2DBE01B0
:1020B0006C5A7F4FCE0182960E948F2DBE016A5CC2
:1020C0007F4FCE0101960E94872DBE016E5D7F4F2E
:1020D000CE0101960E949F2CBE01665D7F4F0E943B
:1020E0009F2CBC01CE01C6960E94C52CCE01019644
:1020F0000E94132DCE0182960E94132DCE018A9646
:102100000E94132D0E5F1F4F0630110509F086CF78
:102110004091080250910902440F551F440F551F6A
:10212000CA01880F991F480F591F57FF02C04F5F00
:102130005F4F559547958A010F5F1F4FBE016A5C3F
:102140007F4FCE0101960E94872DA80161E070E0CB
:10215000CE0101960E94F438CE0101960E94132D03
:102160006DE373E0CE0101960E948F2DBE016F5F7B
:102170007F4FCE01C6960E94DA2CCE0101960E94B6
:10218000132D19E365961FAF659766961FAF669787
:1021900067961FAE67976EE2CE018A960E946F2DFA
:1021A000BE016C5A7F4FCE0182960E948F2DBE01D8
:1021B0006A5C7F4FCE0101960E94872DBE016E5D45
:1021C0007F4FCE0101960E949F2CBE01665D7F4F1E
:1021D0000E949F2CBC01CE01C6960E94C52CCE0148
:1021E00001960E94132DCE0182960E94132DCE01DE
:1021F0008A960E94132D65961FAF659766961FAF4E
:10220000669767961FAE679760E973E0CE018A967E
:102210000E948F2DBE016C5A7F4FCE0182960E9484
:102220008F2DBE016A5C7F4FCE0101960E94872DE3
:10223000BE016E5D7F4FCE0101960E949F2CBE01B4
:10224000665D7F4F0E949F2CBC01CE01C6960E9406
:10225000C52CCE0101960E94132DCE0182960E94BC
:10226000132DCE018A960E94132D209108023091E1
:1022700009028FE090E0289FA001299F500D389F10
:10228000500D112457FF02C04F5F5F4F5595479582
:102290008A010F5F1F4FBE016A5C7F4FCE0101961E
:1022A0000E94872DA80161E070E0CE0101960E9496
:1022B000F438CE0101960E94132D86E090E09093B1
:1022C000B9048093B80467E473E0CE0101960E94DC
:1022D0008F2DBE016F5F7F4FCE01C6960E94DA2C14
:1022E000CE0101960E94132D88E0ECE8F3E0DE01B8
:1022F000929601900D928A95E1F74AE0BE016E5DDB
:102300007F4F8091DA049091DB040E948047BE01E8
:102310006E5D7F4FCE01C0960E948F2DCE01C0967C
:102320000E94132C6EE2CE018A960E946F2DBE0190
:102330006A5C7F4FCE0101960E94872DBE01605DD1
:102340007F4FCE0101960E949F2CBE01665D7F4F9C
:102350000E949F2CBC01CE01C6960E94C52CCE01C6
:1023600001960E94132DCE018A960E94132D609132
:10237000D8047091D904CE018C5A9F4F0E94753BAE
:1023800060E973E0CE01CC960E948F2DBE016C5A9D
:102390007F4FCE018A960E948F2DBE016A5C7F4FCF
:1023A000CE0101960E94872DBE01665D7F4FCE0152
:1023B00001960E949F2CBE01645C7F4F0E949F2C5F
:1023C000BC01CE01C6960E94C52CCE0101960E948A
:1023D000132DCE018A960E94132DCE01CC960E9419
:1023E000132D40910802509109022091B8043091B8
:1023F000B904429FC001439F900D529F900D11243C
:10240000AC01440F551F480F591F57FF02C04F5FC3
:102410005F4F559547958A010F5F1F4FBE016A5C5C
:102420007F4FCE0101960E94872DA80161E070E0E8
:10243000CE0101960E94F438CE0101960E94132D20
:102440001092E6068FE18093E70682E291E00E9417
:10245000BD2288E090E09093B9048093B80462E5CF
:1024600073E0CE0101960E948F2DBE016F5F7F4FFA
:10247000CE01C6960E94DA2CCE0101960E94132D41
:102480006091B4047091B5048091B6049091B70442
:102490000E94C83C8091D1074AE0BE016E5D7F4F2B
:1024A00090E00E948047BE016E5D7F4FCE01019695
:1024B0000E948F2DBE016F5F7F4FCE01C0960E949C
:1024C000DA2CCE0101960E94132DCE01C0960E94F7
:1024D000132C6EE2CE018A960E946F2DBE016A5CBB
:1024E0007F4FCE0101960E94872DBE01605D7F4F18
:1024F000CE0101960E949F2CBE01665D7F4F0E9417
:102500009F2CBC01CE01C6960E94C52CCE0101961F
:102510000E94132DCE018A960E94132D6091B4045F
:102520007091B5048091B6049091B7040E94C83CA4
:102530008091D2074AE0BE016E5D7F4F90E00E941D
:102540008047BE016E5D7F4FCE0101960E948F2DA8
:10255000BE016F5F7F4FCE01C0960E94DA2CCE0184
:1025600001960E94132DCE01C0960E94132C6EE29C
:10257000CE018A960E946F2DBE016A5C7F4FCE010C
:1025800001960E94872DBE01605D7F4FCE010196AE
:102590000E949F2CBE01665D7F4F0E949F2CBC0154
:1025A000CE01C6960E94C52CCE0101960E94132D25
:1025B000CE018A960E94132D6091B4047091B504E7
:1025C0008091B6049091B7040E94C83C8091D307D3
:1025D00090E04AE0BE016E5D7F4F8E54984F0E949E
:1025E0008047BE016E5D7F4FCE0101960E948F2D08
:1025F000BE016F5F7F4FCE01C0960E94DA2CCE01E4
:1026000001960E94132DCE01C0960E94132C60E209
:10261000CE018A960E946F2DBE016A5C7F4FCE016B
:1026200001960E94872DBE01605D7F4FCE0101960D
:102630000E949F2CBE01665D7F4F0E949F2CBC01B3
:10264000CE01C6960E94C52CCE0101960E94132D84
:10265000CE018A960E94132D6091B4047091B50446
:102660008091B6049091B7040E94C83C8091CF0736
:102670004AE0BE016E5D7F4F90E00E948047BE0140
:102680006E5D7F4FCE0101960E948F2DBE016F5F60
:102690007F4FCE01C0960E94DA2CCE0101960E9497
:1026A000132DCE01C0960E94132C6AE3CE018A96A8
:1026B0000E946F2DBE016A5C7F4FCE0101960E9481
:1026C000872DBE01605D7F4FCE0101960E949F2C39
:1026D000BE01665D7F4F0E949F2CBC01CE01C69655
:1026E0000E94C52CCE0101960E94132DCE018A9620
:1026F0000E94132D6091B4047091B5048091B604CA
:102700009091B7040E94C83C8091CE074AE0BE0178
:102710006E5D7F4F90E00E948047BE016E5D7F4FEF
:10272000CE0101960E948F2DBE016F5F7F4FCE01BB
:10273000C0960E94DA2CCE0101960E94132DCE0184
:10274000C0960E94132C6AE3CE018A960E946F2DD8
:10275000BE016A5C7F4FCE0101960E94872DBE01AB
:10276000605D7F4FCE0101960E949F2CBE01665D89
:102770007F4F0E949F2CBC01CE01C6960E94C52CA3
:10278000CE0101960E94132DCE018A960E94132D30
:102790006091B4047091B5048091B6049091B7042F
:1027A0000E94C83C8091CD074AE0BE016E5D7F4F1C
:1027B00090E00E948047BE016E5D7F4FCE01019682
:1027C0000E948F2DBE016F5F7F4FCE01C0960E9489
:1027D000DA2CCE0101960E94132DCE01C0960E94E4
:1027E000132C6BE873E0CE01825B9F4F0E948F2D0C
:1027F0006091B2047091B3044AE0CE01885B9F4FB0
:102800000E94182D6FE573E0CE018E5B9F4F0E94F2
:102810008F2D60910002709101024AE0CE01CC96AA
:102820000E94182D69E673E0CE018A960E948F2DD2
:10283000BE016A5C7F4FCE0101960E94872DBE01CA
:10284000605D7F4FCE0101960E949F2CBE01665DA8
:102850007F4F0E949F2CBE01645C7F4F0E949F2C83
:10286000BE016E5B7F4F0E949F2CBE01685B7F4F55
:102870000E949F2CBE01625B7F4F0E949F2CBC0177
:10288000CE01C6960E94C52CCE0101960E94132D42
:10289000CE018A960E94132DCE01CC960E94132D54
:1028A000CE018E5B9F4F0E94132DCE01885B9F4F00
:1028B0000E94132DCE01825B9F4F0E94132D4091E9
:1028C0000802509109022091B8043091B904429F46
:1028D000C001439F900D529F900D1124AC01440FF5
:1028E000551F480F591F57FF02C04F5F5F4F559547
:1028F00047958A010F5F1F4FBE016A5C7F4FCE0173
:1029000001960E94872DA80161E070E0CE0101963A
:102910000E94F438CE0101960E94132D89E090E0C8
:102920009093B9048093B80461E773E0CE018A966E
:102930000E948F2D8091BE04882389F067E773E0A1
:10294000CE0101960E948F2DBE016F5F7F4FCE0199
:102950008A960E94DA2CCE0101960E94132D6CE714
:1029600073E0CE01825B9F4F0E948F2D609108051E
:102970007091090580910A0590910B052A961FAE6A
:102980001EAE2A972C961FAE1EAE2C972E961FAE0B
:102990001EAE2E972AE0AE014F5F5F4F0E948A471E
:1029A000BE016F5F7F4FCE01885B9F4F0E94B02CAE
:1029B00064E973E0CE018E5B9F4F0E948F2D63EA26
:1029C00073E0CE0101960E948F2DBE016F5F7F4F95
:1029D000CE01CC960E94872DBE01665D7F4FCE0151
:1029E000CC960E949F2CBE016E5B7F4F0E949F2C55
:1029F000BE01685B7F4F0E949F2CBE01625B7F4FD0
:102A00000E949F2CBC01CE01C6960E94C52CCE010F
:102A1000CC960E94132DCE0101960E94132DCE015B
:102A20008E5B9F4F0E94132DCE01885B9F4F0E94AB
:102A3000132DCE01825B9F4F0E94132D40910802FF
:102A4000509109022091B8043091B904429FC0010D
:102A5000439F900D529F900D1124AC01440F551FC0
:102A6000480F591F57FF02C04F5F5F4F559547955D
:102A70008A010F5F1F4FBE016A5C7F4FCE01019636
:102A80000E94872DA80161E070E0CE0101960E94AE
:102A9000F438CE0101960E94132D8AE995E00E9438
:102AA000BD228091B2049091B304853691050CF457
:102AB0002CC100914106109142060115110509F43F
:102AC00024C111D63B014C01F80186A997A9A0ADFC
:102AD000B1AD98012E5B3F4F5901892B8A2B8B2B6F
:102AE00009F4ABC0F90180819181A281B381A40175
:102AF0009301281B390B4A0B5B0BCA01B90157FD27
:102B000060C028EE33E040E050E00E9402496D963C
:102B10006CAF7DAF8EAF9FAF6D971301240188EE30
:102B2000280E83E0381E411C511C6D968CAD9DAD66
:102B3000AEADBFAD6D97281A390A4A0A5B0AD501B6
:102B40002D923D924D925C921397BA01A9014F5F6D
:102B50005F4F6F4F7F4FF80186A597A5A0A9B1A938
:102B60001A012B01220C331C441C551C82159305A1
:102B7000A405B5052CF416A617A610AA11AA09C01B
:102B8000841B950BA60BB70BF80186A797A7A0ABE4
:102B9000B1ABF80182A993A9A4A9B5A9821593059F
:102BA000A405B5052CF412AA13AA14AA15AA09C0E3
:102BB000841B950BA60BB70BF80182AB93ABA4ABB0
:102BC000B5AB5801F6E4AF0EB11CD5018C91833042
:102BD00091F4F80186A597A5A0A9B1A91816190620
:102BE0001A061B0644F084E0D5018C93C8010E94AC
:102BF0002D23019602C080E090E0F5012081233072
:102C000011F0211127C0D801D2964D915D916D919F
:102C10007C91D5971416150616061706DCF0F501FB
:102C2000108284E1F8013E96DF011D928A95E9F752
:102C3000C8010E942D2303960DC0D401C301885101
:102C40009C4FAF4FBF4FF90180839183A283B38321
:102C500080E090E0D801D6966D927D928D929C9204
:102C6000D9978230910519F0049709F04EC080E59C
:102C700090E00E941D306091410670914206625FB3
:102C80007F4FCE0101960E94772ECE0103960E94BF
:102C9000153060914106709142066A5E7F4FCE0109
:102CA00001960E94772E44E050E0BE016D5F7F4F99
:102CB00081E090E098D560914106709142066E5E89
:102CC0007F4FCE0101960E94772E44E050E0BE0176
:102CD0006D5F7F4F85E090E086D50E941C3060914B
:102CE000410670914206625E7F4FCE0101960E94BE
:102CF000772E8B819C81AD81BE8180933D06909320
:102D00003E06A0933F06B09340068091B204909196
:102D1000B304873991051CF0E0E0F0E0199580E8F4
:102D200097E00E94A52F892B21F080E897E00E9470
:102D30008B2F80E897E00E94FB37811104C08091BF
:102D4000B104811140C3CFD40091D4041091D504B3
:102D50002091D6043091D704DC01CB01801B910B6C
:102D6000A20BB30B81389E4EA643B105D0F081E390
:102D70009CE39093CD048093CC048091C8049091FF
:102D8000C904A091CA04B091CB048093C404909369
:102D9000C504A093C604B093C7040E94E9270E940B
:102DA000E927A1D40091D0041091D1042091D2043C
:102DB0003091D304DC01CB01801B910BA20BB30B30
:102DC000813C9742A940B10508F4C3C280E897E06E
:102DD0000E94FB37882321F080E897E00E941E388C
:102DE00068EA73E0CE0101960E948F2DBE016F5FED
:102DF0007F4F8AE797E00E94DA2CCE0101960E946D
:102E0000132D8DE0E4EAF4E0DF011D928A95E9F7E5
:102E100002E012E0F80181918F01982F92959F7046
:102E20008F709A3010F0995C01C0905D9CAF8A3031
:102E300010F0895C01C0805D89831DAE1A82BE01DD
:102E4000645C7F4F84EA94E00E94F746BE016F5FA6
:102E50007F4F84EA94E00E94F746F2E008301F07B3
:102E6000C9F664EA74E0CE0101960E948F2DCE016E
:102E700001960E94EB38CE0101960E94132D8AE044
:102E8000A82E82E0B82ED7018D919C9181389F4F5A
:102E900009F49DC066E2CE0101960E946F2DCE011D
:102EA00001960E94EB38CE0101960E94132D07E097
:102EB00010E04501800E911EF4018081803170F494
:102EC00064ED73E0CE0101960E948F2DCE01019634
:102ED0000E94EB38CE0101960E94132D40E1D401EF
:102EE0006C91CE0101960E94432DCE0101960E9465
:102EF000EB38CE0101960E94132D01501109C8F63E
:102F00006DE3CE0101960E946F2DCE0101960E94C5
:102F1000EB38CE0101960E94132D4AE0BE016E5D92
:102F20007F4FF701808191810E948047BE016E5DD5
:102F30007F4FCE0101960E948F2DBE016F5F7F4FA4
:102F4000CE01C0960E94DA2CCE0101960E94132D6C
:102F5000CE01C0960E94132CCE01C0960E94EB3881
:102F60006EE2CE0101960E946F2DCE0101960E9465
:102F7000EB38CE0101960E94132DD6018D919C91C4
:102F80000A976CF460E3CE0101960E946F2DCE018A
:102F900001960E94EB38CE0101960E94132D4AE063
:102FA000BE016E5D7F4FF601808191810E94804756
:102FB000BE016E5D7F4FCE0101960E948F2DCE0126
:102FC00001960E94EB38CE0101960E94132DF2E08B
:102FD000EF0EF11C22E0C20ED11C38E0A30EB11C92
:102FE00044E0E41645E0F40609F04DCF8091DE049C
:102FF0009091DF0481389F4F09F49FC066E2CE01B3
:1030000001960E946F2DCE0101960E94EB38CE01F1
:1030100001960E94132D02E612E0D8018E918D01D7
:10302000803170F464ED73E0CE0101960E948F2D23
:10303000CE0101960E94EB38CE0101960E94132D1D
:1030400040E1F8016081CE0101960E94432DCE013E
:1030500001960E94EB38CE0101960E94132DF2E0FA
:103060000A351F07D1F66DE3CE0101960E946F2D40
:10307000CE0101960E94EB38CE0101960E94132DDD
:103080004AE0BE016E5D7F4F8091DE049091DF04C7
:103090000E948047BE016E5D7F4FCE0101960E9467
:1030A0008F2DBE016F5F7F4FCE01C0960E94DA2C3C
:1030B000CE0101960E94132DCE01C0960E94132CC2
:1030C000CE01C0960E94EB386EE2CE0101960E94BE
:1030D0006F2DCE0101960E94EB38CE0101960E9421
:1030E000132D8091DC049091DD040A976CF460E369
:1030F000CE0101960E946F2DCE0101960E94EB3801
:10310000CE0101960E94132D4AE0BE016E5D7F4FF5
:103110008091DC049091DD040E948047BE016E5DC9
:103120007F4FCE0101960E948F2DCE0101960E9405
:10313000EB38CE0101960E94132D8091DA04909114
:10314000DB0481389F4F09F49FC066E2CE010196EF
:103150000E946F2DCE0101960E94EB38CE010196A0
:103160000E94132D0AE512E0D8018E918D01803165
:1031700070F464ED73E0CE0101960E948F2DCE01B4
:1031800001960E94EB38CE0101960E94132D40E17A
:10319000F8016081CE0101960E94432DCE01019677
:1031A0000E94EB38CE0101960E94132DF2E0023509
:1031B0001F07D1F66DE3CE0101960E946F2DCE015F
:1031C00001960E94EB38CE0101960E94132D4AE031
:1031D000BE016E5D7F4F8091DA049091DB040E9406
:1031E0008047BE016E5D7F4FCE0101960E948F2DFC
:1031F000BE016F5F7F4FCE01C0960E94DA2CCE01D8
:1032000001960E94132DCE01C0960E94132CCE0170
:10321000C0960E94EB386EE2CE0101960E946F2D9F
:10322000CE0101960E94EB38CE0101960E94132D2B
:103230008091D8049091D9040A976CF460E3CE0190
:1032400001960E946F2DCE0101960E94EB38CE01AF
:1032500001960E94132D4AE0BE016E5D7F4F809162
:10326000D8049091D9040E948047BE016E5D7F4FC3
:10327000CE0101960E948F2DCE0101960E94EB385F
:10328000CE0101960E94132D40E550E06CED73E0F5
:1032900080E897E00E94AE2F909301028093000295
:1032A000019709F049C06CEA73E080E897E00E945A
:1032B0004B2E66ED73E080E897E00E944B2E68EE9F
:1032C00073E080E897E00E944B2E68E174E080E8AC
:1032D00097E00E94A32D40917E0750917F0760E008
:1032E00070E02AE080E897E00E94B82D80E897E03F
:1032F0000E94482E80E897E00E94482E6AE777E017
:1033000080E897E00E945B2EEED16093D00470932A
:10331000D1048093D2049093D3040E94E927609350
:10332000B4047093B5048093B6049093B7041092DC
:10333000B3041092B2040DC080E897E00E941E38DA
:103340008091B2049091B30401969093B30480935A
:10335000B20480E897E00E94FB3791E0811138C009
:1033600090E036C0C0D100910C0510910D05209160
:103370000E0530910F05DC01CB01801B910BA20BD8
:10338000B30B81329F4BA240B105C8F08091A304DA
:10339000882321F081E090E00E94813B8091A2048B
:1033A000882321F082E090E00E94813B0E94612A04
:1033B000882319F08AE093E082D41092BF0410921F
:1033C000BE040C94EF0B80E897E00E941E38BBCC43
:1033D0009093B104CE018A960E94132DCE01C0961F
:1033E0000E94132DCE01C6960E94132D69964EADF4
:1033F0005FAD69970FB6F8945EBF0FBE4DBFC45A5C
:10340000DF4F0FB6F894DEBF0FBECDBFDF91CF9177
:103410001F910F91FF90EF90DF90CF90BF90AF90F2
:103420009F908F907F906F905F904F903F902F90E4
:1034300008953FB7F8948091860590918705A091F3
:103440008805B091890526B5A89B05C02F3F19F0C6
:103450000196A11DB11D3FBFBA2FA92F982F882714
:10346000820F911DA11DB11DBC01CD0142E0660F6F
:10347000771F881F991F4A95D1F708952C9A0895B0
:103480002C9808958EBD00000DB407FEFDCF8EB5BB
:103490000895CF93DF93EC01898D9A8D892B41F0AC
:1034A000E881F9810680F781E02DCE011995F4CFEE
:1034B000DF91CF910895CF93DF931F92CDB7DEB701
:1034C0006983DC01ED91FC910280F381E02D41E004
:1034D00050E0BE016F5F7F4F19950F90DF91CF9144
:1034E0000895AF92BF92CF92DF92FF920F931F93F6
:1034F000CF93DF938C015B01EA01FC01C788D08C7C
:10350000F48480E590E00E941D308F2D0E944B29AD
:103510008C179D0720F48F2D0E944B29EC019E01F2
:10352000A501B6018F2D0E94E6280E941C30F801EB
:103530008789908D8C0F9D1F908F878BCE01DF9197
:10354000CF911F910F91FF90DF90CF90BF90AF90E0
:10355000089590E0FC013197E231F10508F04EC08A
:103560008827EE58FF4F8F4F0C94234480918000A2
:103570008F7703C0809180008F7D809380000895B5
:1035800080918000877FF9CF84B58F7702C084B5A2
:103590008F7D84BD08958091B0008F7703C08091A6
:1035A000B0008F7D8093B0000895809190008F7758
:1035B00007C0809190008F7D03C080919000877F2D
:1035C0008093900008958091A0008F7707C080912C
:1035D000A0008F7D03C08091A000877F8093A00012
:1035E0000895809120018F7707C0809120018F7D01
:1035F00003C080912001877F809320010895CF939D
:10360000DF9390E0FC01E258FD4E2491FC01E25270
:10361000FD4E8491882361F190E0880F991FFC0191
:10362000E85FFE4FC591D491FC01EC53FD4EA5918E
:10363000B491611109C09FB7F894888120958223C5
:103640008883EC912E230BC0623061F49FB7F8940D
:103650003881822F809583238883EC912E2B2C93A5
:103660009FBF06C08FB7F894E8812E2B28838FBFA9
:10367000DF91CF9108958F929F92AF92BF92CF9298
:10368000DF92EF92FF926B017C01D3DE4B015C0174
:10369000C114D104E104F104E9F0CBDEDC01CB017B
:1036A00088199909AA09BB09883E9340A105B1056B
:1036B00078F321E0C21AD108E108F10888EE880EFB
:1036C00083E0981EA11CB11CC114D104E104F104D3
:1036D00021F7DECFFF90EF90DF90CF90BF90AF90BB
:1036E0009F908F9008952FB7F89460918205709104
:1036F000830580918405909185052FBF08951F92C1
:103700000F920FB60F9211242F933F938F939F9395
:10371000AF93BF938091820590918305A09184051A
:10372000B09185053091810523E0230F2D3720F4DA
:103730000196A11DB11D05C026E8230F0296A11D0B
:10374000B11D209381058093820590938305A093FA
:103750008405B09385058091860590918705A09199
:103760008805B09189050196A11DB11D809386053C
:1037700090938705A0938805B0938905BF91AF9179
:103780009F918F913F912F910F900FBE0F901F909F
:103790001895CF92DF92EF92FF920F931F93CF93E2
:1037A000DF93EC017A018B016C01C40ED51ECC15A0
:1037B000DD0579F065DE8FE065DE8D2F63DE8C2F11
:1037C00061DE219680E05EDEF80181938F0156DE96
:1037D000EECFC701DF91CF911F910F91FF90EF9036
:1037E000DF90CF900895CF92DF92EF92FF920F93E8
:1037F0001F93CF93DF93EC017A018B016C01C40E10
:10380000D51ECC15DD0571F03BDE80EF3BDE8D2F44
:1038100039DE8C2F37DE2196F80181918F0132DE5F
:103820002DDEEFCFC701DF91CF911F910F91FF9058
:10383000EF90DF90CF9008951F93CF93DF931F9267
:103840001F92CDB7DEB7182F6A83998319DE80EFF8
:1038500019DE9981892F16DE812F14DE6A81862F69
:1038600011DE0CDE81E00F900F90DF91CF911F9160
:1038700008951F93CF93DF931F921F92CDB7DEB7AA
:10388000182F80E590E069837A830E941D3021E043
:1038900041E050E069817A81812F0E9467290E946E
:1038A0001C3081E090E00F900F90DF91CF911F913D
:1038B0000895CF93DF931F92CDB7DEB7FC01218D22
:1038C000328D232B41F0BE016F5F7F4F8485D1DFA6
:1038D000898190E002C08FEF9FEF0F90DF91CF9131
:1038E00008959B0190E00496982F8827642F820FFB
:1038F000931FA2CFCF93C82F80E590E00E941D3088
:1039000060E170E08C2F0E9499284FEF62E070E038
:103910008C2FE7DFCF910C941C300F931F93CF9324
:10392000DF931F92CDB7DEB790E00496982F8827DB
:103930008C01060F171FA4DD8FE0A4DD812FA2DD0F
:10394000802FA0DD80E09EDD898398DD89810F9046
:10395000DF91CF911F910F9108951F93CF93DF9324
:10396000182F66E270E0D9DFC82FD0E067E270E080
:10397000812FD3DFDC2FCC279E01282BC901DF91BB
:10398000CF911F910895FF920F931F93CF93DF93D1
:10399000F82E80E590E00E941D30C0E0D0E08F2D31
:1039A000DCDF8C01892B19F08F2DD7DFEC01C017DC
:1039B000D107A9F70E941C30CE01DF91CF911F9152
:1039C0000F91FF9008951F93CF93DF93182F60E21C
:1039D00070E0A3DFC82FD0E061E270E0812F9DDFAF
:1039E000DC2FCC279E01282BC901DF91CF911F919D
:1039F0000895AF92BF92CF92DF92EF92FF921F9302
:103A0000CF93DF93182F5B017A0180E590E00E944D
:103A10001D30C0E0D0E0812FA0DF6C01892B19F0B0
:103A2000812F9BDFEC01CC15DD05A9F7209791F4E0
:103A300063E070E0812F71DF8431F1F08823E1F0E1
:103A4000C1E0D0E08C3111F4C0E0D0E0D195C19557
:103A5000D10912C0EC16FD060CF4E7011C161D0678
:103A60005CF420E0AE01B501812F0E94672960E47B
:103A700070E0812F0E9499280E941C30CE01DF91B6
:103A8000CF911F91FF90EF90DF90CF90BF90AF90BC
:103A90000895CF93DF93FC01218D328D21153105DF
:103AA00019F48FEF9FEF10C0EC014217530708F095
:103AB000A9018C859EDF181619069CF7298D3A8D71
:103AC000281B390B3A8F298FDF91CF9108950F93DF
:103AD0001F93CF93DF931F92CDB7DEB7FC01218DEB
:103AE000328D232B59F08C0141E050E0BE016F5F15
:103AF0007F4F84857EDF181619061CF08FEF9FEF2D
:103B000008C0F801818D928D0197928F818F8981F4
:103B100090E00F90DF91CF911F910F9108950F9337
:103B20001F93CF93DF93CDB7DEB728970FB6F894E6
:103B3000DEBF0FBECDBF8C01DC01ED91FC91028494
:103B4000F385E02D1995F80184851DDF18161906F7
:103B500054F548E050E0BE016F5F7F4FD8011C96DE
:103B60008C9147DF9C0118161906DCF489819A8133
:103B7000AB81BC81F801818B928BA38BB48B8D813F
:103B800090E0982F88272E81820F911D968B858B30
:103B90002F8130E0322F22278885280F311D328F68
:103BA000218FC90102C080E090E028960FB6F894FA
:103BB000DEBF0FBECDBFDF91CF911F910F91089552
:103BC0001F93CF93DF931F92CDB7DEB7182F80E5F9
:103BD00090E00E941D3063E070E0812F9EDE8983BB
:103BE0000E941C3089810F90DF91CF911F91089521
:103BF000CF92DF92EF92FF92CF93DF93EC0173DDD0
:103C00006B017C018091490690914A06DC01ED919F
:103C1000FC910480F581E02D1995892B71F463DD09
:103C2000AB01BC014C195D096E097F0948395A4343
:103C30006105710538F380E00DC0809149069091CF
:103C40004A06DC01ED91FC910680F781E02D199583
:103C5000888381E0DF91CF91FF90EF90DF90CF904C
:103C600008950E94612A882341F18091CB069091AA
:103C7000CC06019611F481E090E09093CC068093FD
:103C8000CB068091CB069091CC0690935006809302
:103C9000510647E050E06BE476E088E394E00E9450
:103CA000CF29FC01E75BF94F1282AC014450510966
:103CB0006BE476E082E80C94F02980E008950F939D
:103CC0001F93CF93DF938C01EC0109900020E9F75B
:103CD0002197C81BD90B0E94612A882361F1CE016C
:103CE00086968138910538F545E050E06BE476E042
:103CF00085E494E00E94CF29F80120E030E02C1701
:103D00003D0759F04191D901A80FB91FA75BB94FE1
:103D100012964C932F5F3F4FF2CF25503109A901E6
:103D2000480F591F6BE476E080E3DF91CF911F913C
:103D30000F910C94F02980E0DF91CF911F910F91AA
:103D400008955F926F927F928F929F92AF92BF92EF
:103D5000CF92DF92EF92FF920F931F93CF93DF9357
:103D60001F92CDB7DEB74C018BE496E041DF8111A5
:103D700025C021C00F5F1F4F8981F801E75BF94F14
:103D80008183282F2F7730E02C9DA0012D9D500D91
:103D90003C9D500D1124A40EB51E37E0CC0CDD1C4B
:103DA000EE1CFF1C3A95D1F787FF14C0CE01019697
:103DB0001FDF8111DFCF80E090E085C070904B065F
:103DC000198201E010E0A12CB12CC12CD12C76017C
:103DD000C394ECCF872D807F55245394803309F012
:103DE000512C8FEF800FD4018C93552011F1C80115
:103DF000855B994FFDDE8823F1F2C801845B994F02
:103E0000F7DE8823C1F20E5F1F4FD401EC91F0E082
:103E1000E75BF94FE380F12CFE2CEE248481E80E61
:103E2000F11C80914B0681FF08C0B2E0EB0EF11C43
:103E300004C080E0E12CF12C01C082E0C82ED12C1E
:103E4000C01AD10A9EEF692E77247A94C601800F9A
:103E5000911F8A159B0560F5CE010196C9DE882366
:103E600009F4A9CF8091E2069091E3060097A9F0AA
:103E7000552099F0F4012081A301421B51099A01B8
:103E8000200F311FE216F30640F4DC01ED91FC91A6
:103E90000190F081E02D698119950038110528F411
:103EA0008981F801E75BF94F82830F5F1F4FCECF07
:103EB0008091E2069091E306892B21F401381105E7
:103EC00008F079CFC8010F90DF91CF911F910F912A
:103ED000FF90EF90DF90CF90BF90AF909F908F902A
:103EE0007F906F905F9008958F929F92AF92BF9254
:103EF000EF92FF921F93CF93DF93CDB7DEB7289752
:103F00000FB6F894DEBF0FBECDBF0E94612A182FF6
:103F10008111CDC06091DE067091DF06A091490647
:103F2000B0914A064091E0065091E106ED91FC9176
:103F300011976115710521F00684F785E02D16C0F3
:103F40000484F585E02D8FEC92E09A83898380903C
:103F5000DA069090DB06A090DC06B090DD068B823E
:103F60009C82AD82BE82BE016F5F7F4FCD011995ED
:103F70008130910509F095C09093CC068093CB06D3
:103F800087E0E2E7F2E0DE01119601900D928A955A
:103F9000E1F7FE013196A0E5B6E07E0128E0E20EF1
:103FA000F11C81918D93EE15FF05D9F782E0809386
:103FB0005706109258068FE0809359064FE050E064
:103FC0006BE476E085E694E00E94CF29AC01455091
:103FD00051096BE476E080E10E94F02984DB609374
:103FE000CD067093CE068093CF069093D006609353
:103FF000D1067093D2068093D3069093D406809115
:10400000490690914A06DC01ED91FC910480F5810E
:10401000E02D1995892BD9F466DB8090D10690901C
:10402000D206A090D306B090D406DC01CB0188194B
:104030009909AA09BB0988399A43A105B105F8F283
:104040008CEF9FEF9093E5068093E4061EC0C701B6
:1040500078DE0497D1F420914E06211111C043DB84
:104060006093D1067093D2068093D3069093D406C2
:104070001092D5061092E5061092E40611E017C0E2
:1040800030E03093E5062093E40680914906909154
:104090004A06DC01ED91FC910288F389E02D199527
:1040A00006C08EEF9FEF9093E5068093E406812F84
:1040B00028960FB6F894DEBF0FBECDBFDF91CF912B
:1040C0001F91FF90EF90BF90AF909F908F900895B9
:1040D000483009F443C1403109F442C1413009F08C
:1040E00054C19091F506943019F5E091FE06F091D7
:1040F000FF0690910807813019F48081982B03C046
:104100008081909598239083E0910007F0910107BA
:10411000908180910907809589238083E091000731
:10412000F0910107908180910907892B80830FC04E
:10413000E091F606F091F70690910407813019F4AA
:104140008081982B03C08081909598239083E09183
:10415000FE06F091FF0680910807908167FF02C07C
:10416000892B02C0809589238083E0910007F0911C
:104170000107908180910907809589238083E091D0
:104180000007F0910107908180910907892B8083B6
:10419000E091FE06F091FF0680910807908166FF8E
:1041A00002C0892B02C0809589238083E09100079B
:1041B000F091010790818091090780958923808380
:1041C000E0910007F0910107908180910907892B08
:1041D0008083E091FE06F091FF06809108079081B0
:1041E00065FF02C0892B02C0809589238083E091FE
:1041F0000007F0910107908180910907809589233C
:104200008083E0910007F091010790818091090778
:10421000892B8083E091FE06F091FF0680910807CC
:10422000908164FF02C0892B02C08095892380831E
:10423000E0910007F0910107908180910907809536
:1042400089238083E0910007F0910107908180919C
:104250000907892B8083E091FE06F091FF0680918B
:104260000807908163FF02C0892B02C080958923D3
:104270008083E0910007F091010790818091090708
:10428000809589238083E0910007F0910107908158
:1042900080910907892B8083E091FE06F091FF064B
:1042A00080910807908162FF02C0892B02C080952F
:1042B00089238083E0910007F0910107908180912C
:1042C0000907809589238083E0910007F091010719
:1042D000908180910907892B8083E091FE06F091FF
:1042E000FF0680910807908161FF02C0892B02C000
:1042F000809589238083E0910007F09101079081E8
:1043000080910907809589238083E0910007F091CF
:104310000107908180910907892B8083E091FE0637
:10432000F091FF0680910807908160FF02C0892B01
:1043300002C0809589238083E0910007F0910107F6
:10434000908180910907809589238083E0910007FF
:10435000F091010790818091090715C062B902C0F0
:1043600082B968B9E091F806F091F90690818091E0
:104370000507809589238083E091F806F091F9067E
:10438000908180910507892B80830895E6EEF6E001
:10439000A089B1892C91968D909592239C93468506
:1043A000682F80E095CEE6EEF6E0A089B1892C91E9
:1043B000968D922B9C934685682F80E089CEEF9254
:1043C000FF920F931F93CF93DF9300D01F92CDB72F
:1043D000DEB78C017A018091EA06813069F4409160
:1043E000EF065091F006CA01801B910B4E195F0930
:1043F00079019C018B01BA018AE22C833B836A8399
:104400007983C4DF812FCFDF802FCDDF8F2DCBDFEE
:104410008E2DC9DF8BE2BADF7981872FC4DF6A81F5
:10442000862FC1DF3B81832FBEDF2C81822FBBDF34
:104430008CE20F900F900F900F90DF91CF911F9112
:104440000F91FF90EF90A2CF2091EA068091EF06A6
:104450009091F0064091EB065091EC06211102C0BC
:104460009C0102C09A01AC0160E070E080E090E045
:10447000A6CF1F93CF93DF93162FC6EED6E0E88921
:10448000F98920819E8D922B90834E85682F80E044
:104490001FDE4E85612F80E0DF91CF911F9118CEF6
:1044A0000F931F93CF93DF93FC01EA0157FF05C0E1
:1044B000640F751FD195C195D109A091FA06B091ED
:1044C000FB062C9190910607909592239C939B015B
:1044D0002C0F3D1FAF01CF0172DF00E010E00C1781
:1044E0001D0741F06091E7068091E606C2DF0F5F8D
:1044F0001F4FF5CFE091FA06F091FB069081809175
:104500000607892B8083DF91CF911F910F919CCF5C
:104510000F931F93CF93DF93EA0157FF05C0840FDA
:10452000951FD195C195D109E091FA06F091FB064E
:10453000408130910607309534233083AC014C0F15
:104540005D1F9B013CDF00E010E06091E706809179
:10455000E6068FDF0F5F1F4FC017D107B4F7E0915A
:10456000FA06F091FB06908180910607892B8083E3
:10457000DF91CF911F910F9167CFA6EEB6E09B968A
:104580009C938E939A97FC0124919C962C939C97D4
:104590003196E4919D96EC939D97FC013296E491BF
:1045A0009E96EC939E97FC01339684919F968C93F4
:1045B00008950895FC0190810180F281E02DF89426
:1045C0008181892B81832281892F809528232283D1
:1045D000A7E0B0E01197F1F7218182238183A3E264
:1045E000B0E01197F1F780817894EFECF0E031972B
:1045F000F1F7982381E009F480E00895FC019081AF
:104600000180F281E02D892F809560FF12C0F8941F
:104610002281822382838181892B8183A3E2B0E07E
:104620001197F1F78281982B9283789487ED90E02F
:1046300011C0F8942281822382838181892B818316
:10464000AFEFB0E01197F1F78281982B92837894C5
:104650008FE090E00197F1F708952F923F924F92EB
:104660005F926F927F928F929F92AF92BF92CF9202
:10467000DF92EF92FF920F931F93CF93DF93CDB70B
:10468000DEB727970FB6F894DEBF0FBECDBF8C0103
:104690000E946A472FEC37E040E050E00E94024958
:1046A000DC01CB010196A11DB11DF8018483958326
:1046B000A683B78380839183A283B3835801F7E4F1
:1046C000AF0EB11CC5010E94313764E470E0C50132
:1046D0000E944637882309F427C105D82B013C01E5
:1046E0001F821E821D82480186E4880E911C1801DB
:1046F0009EE3290E311C48EEC42E43E0D42EE12C5B
:10470000F12CD4018C91833009F4FCC081111FC0BD
:10471000F80184819581A681B7810196A11DB11D03
:1047200084839583A683B7830E94731B64197509DC
:1047300086099709A70196010E942E49A90161E007
:10474000C8010E94803581E0D4018C93BDC08430C3
:10475000F9F4F80184819581A681B7810196A11DA4
:10476000B11D84839583A683B7830E94731B64194C
:10477000750986099709A70196010E942E49A9018A
:1047800063E0C8010E948035E2E0D401EC939CC054
:10479000813059F5D1014D915D916D917C919E01D2
:1047A0002F5F3F4FC8010E94B5338D83823009F0DF
:1047B0008BC089819A81AB81BC81F8018483958308
:1047C000A683B7830E94731B64197509860997092C
:1047D000A70196010E942E49A90163E0C8010E9429
:1047E0008035ED81D401EC9375C0823009F06CC046
:1047F000D1014D915D916D917C919E012F5F3F4F55
:10480000C8010E94B5338D83853009F057C083E01D
:10481000F4018083F80182A193A1A4A1B5A1892B01
:104820008A2B8B2B41F484E893E0A0E0B0E082A3D4
:1048300093A3A4A3B5A3F80186A197A1A0A5B1A5B0
:10484000892B8A2B8B2B61F482A193A1A4A1B5A102
:10485000B695A7959795879586A397A3A0A7B1A787
:10486000D8019A964D915D916D917C919D97969608
:104870008D919D910D90BC91A02D452B462B472BE2
:1048800059F4AC01BD01440F551F661F771FF80195
:1048900042A753A764A775A7F80186A797A7A0AB5F
:1048A000B1AB82A593A5A4A5B5A582AB93ABA4ABF0
:1048B000B5AB81E090E09F838E830CC09D819630E4
:1048C00019F4D4011C9206C0BD81BF3F19F4F40154
:1048D00010821D828E819F81019709F412CF0E9460
:1048E000731BDC01CB0184199509A609B709F801EE
:1048F00022AD33AD44AD55AD281739074A075B07E4
:1049000008F0FFCEC5010E943137F80184819581FE
:10491000A681B7810196A11DB11D84839583A683CD
:10492000B7838E819F8102C080E090E027960FB60A
:10493000F894DEBF0FBECDBFDF91CF911F910F91D5
:10494000FF90EF90DF90CF90BF90AF909F908F90AF
:104950007F906F905F904F903F902F900895CF92EF
:10496000DF92EF92FF920F931F93CF93DF931F92EB
:10497000CDB7DEB76C01E62E08E010E0FF24F3941B
:1049800061E08F2D8E2109F460E0C601498336DE97
:10499000FF0C0150110949810115110589F74111D9
:1049A00015C0F894D6011196ED91FC911297918162
:1049B0008C918095892381831196ED91FC911297BA
:1049C00092818C9180958923828378940F90DF91D6
:1049D000CF911F910F91FF90EF90DF90CF900895AE
:1049E000CF92DF92EF92FF920F931F93CF93DF93BB
:1049F0001F92CDB7DEB78C01F62E40E065E57983D6
:104A0000AEDFCF2C7981D72E760188E0E80EF11C3D
:104A1000F60161916F0140E0C801A1DFCE14DF040F
:104A2000B9F70F90DF91CF911F910F91FF90EF9009
:104A3000DF90CF900895FC0190810180F281E02DFC
:104A4000F8948181292F20958223818378948DE7A2
:104A500043E050E0815021F1DA011197F1F7308104
:104A60003923C1F3F8948281822382838181892B47
:104A700081837894ABE7B7E01197F1F7F8948181DF
:104A800028232183A3E1B1E01197F1F780819823D6
:104A900081E009F080E07894E3E6F6E03197F1F701
:104AA00008956F927F928F929F92AF92BF92CF9212
:104AB000DF92EF92FF920F931F93CF93DF931F929A
:104AC000CDB7DEB78C01F42EFC0185819681598328
:104AD00087DF40E06EEBF8018581968140DF6F2C27
:104AE0005981752E5301F9E0AF0EB11CF801858094
:104AF000968088E0C82ED12CEE24E394F12CC401DA
:104B000059DD8111FE28EE0CF1E0CF1AD108B9F77A
:104B1000F301F1923F01EA15FB0541F7F8018581A8
:104B2000968189DF91E0813009F090E0892F0F9024
:104B3000DF91CF911F910F91FF90EF90DF90CF9079
:104B4000BF90AF909F908F907F906F900895CF937C
:104B5000DF93EC018D819E816EDF40E06CEC8D81F6
:104B60009E81FDDE488164E48D819E81F8DE8A812C
:104B70008823B1F0E981E950E33040F4F0E0EE0F32
:104B8000FF1FE758FD4F6081718102C06EEE72E039
:104B9000072E000C880B990BDF91CF910C943B1BD7
:104BA000DF91CF910895EF92FF920F931F93CF93D0
:104BB000DF931F921F92CDB7DEB78C017A01DC0123
:104BC00015968D919C91169769837A8334DF69815C
:104BD0007A818823B1F0A701C80163DF882389F0B7
:104BE000D70189E0E0E0815039F09D91E927F0E0BC
:104BF000E258FE4EE491F7CF81E0D70118969C91E0
:104C0000E91380E00F900F90DF91CF911F910F91EA
:104C1000FF90EF9008950F931F93CF93DF93CDB73D
:104C2000DEB729970FB6F894DEBF0FBECDBF8B015C
:104C3000AE014F5F5F4FB7DF882361F1298188E0C4
:104C4000289FA00111248A81282F30E0322F2227AB
:104C5000330F330F330F242B352BF8018081803134
:104C6000E1F4688570E08F81AB01481B5109CA01EE
:104C70009695982F8827979587950E9410446051A4
:104C80007109207F53E0220F331F5A95E1F7620F1D
:104C9000731F04C060E874EE01C0B901613854EEBE
:104CA00075076CF0072E000C880B990B0E94EC47DF
:104CB00020E030E040E05CE30E944B4804C060E04C
:104CC00070E08EEF92EC29960FB6F894DEBF0FBE1F
:104CD000CDBFDF91CF911F910F910895CF93DF93B7
:104CE000CDB7DEB729970FB6F894DEBF0FBECDBFA4
:104CF000FB0120812031C9F0AE014F5F5F4F53DFD0
:104D0000882389F08D818F3361F020F48F3159F43D
:104D100089E00CC08F3519F08F3739F004C08BE073
:104D200005C08AE003C080E001C08CE029960FB680
:104D3000F894DEBF0FBECDBFDF91CF9108954F92A3
:104D40005F926F927F928F929F92AF92BF92CF921B
:104D5000DF92EF92FF920F931F93CF93DF93CDB724
:104D6000DEB762970FB6F894DEBF0FBECDBF7C01F1
:104D7000DC011596ED91FC91169713861586148625
:104D8000DF011B9633961E92AE17BF07E1F7F701BE
:104D90001482992493946E01FAE0CF0ED11C5E0127
:104DA00082E1A80EB11C87E0882E8C0CF7010581EA
:104DB0001681D8011D968C9181115DC0C8013BDE22
:104DC000882309F458C040E060EFC801C8DD6624BC
:104DD0006394512C412C77247394C801EBDB682F2A
:104DE000C8016A8BE7DB6A89613019F48130D1F43C
:104DF00036C0252D30E068131EC0D8011B968C915B
:104E0000781638F4F801E20FF31F8381862151F4FC
:104E100002C0781639F060E0B8E0B71558F0F80134
:104E2000748608C0F801E50DF11D8381862983830E
:104E300061E009C0472CF801E20FF31F9381862D32
:104E4000809589238383C801D9DB7394660C19F498
:104E5000539466246394F7E0F51508F0BECF80E420
:104E6000871548F4D8011B964C921B9741101EC021
:104E70001D969C921BC0F8011386158614866296B7
:104E80000FB6F894DEBF0FBECDBFDF91CF911F915B
:104E90000F91FF90EF90DF90CF90BF90AF909F90D9
:104EA0008F907F906F905F904F900895F80183816D
:104EB000882309F33396D60181918D93AA15BB05FA
:104EC000D9F7D601E0E08A1639F08D91E827F0E0B5
:104ED000E258FE4EE491F7CF8989E81367CFD701F6
:104EE0008C9181111FC015968D919C911697A3DD11
:104EF000B601F7018581968173DD40E064EBD7014F
:104F000015968D919C9116972ADDF70185819681E2
:104F100051DB182FD70115968D919C9116978BDD3B
:104F2000112329F1F7018581968185DD882331F0F0
:104F3000AE014F5F5F4FB601C701B3DDD7011196D8
:104F40001C91B601C701CADE811718F4F7018181EF
:104F500003C0B601C701C2DED70111968C93119729
:104F600014968C9114978F5F14968C931FCFD70152
:104F70009C92D8CF0F931F93CF93DF93EC01162F02
:104F800060E0812F0E94FF1A612F70E0FB01E25860
:104F9000FD4EE491E883FB01E252FD4EE491F0E026
:104FA000EE0FFF1FEC5DFC4E859194919A838983EF
:104FB0001B861D861C86FE013B968E010D5F1F4FD2
:104FC0001292E017F107E1F7DF91CF911F910F9156
:104FD0000895CF92DF92EF92FF920F931F930E945A
:104FE000731BC0908A05D0908B05E0908C05F090E3
:104FF0008D058B019C010C191D092E093F0980911B
:10500000C8049091C904A091CA04B091CB04083E91
:10501000134021053105D0F00196A11DB11D8093EB
:10502000C8049093C904A093CA04B093CB04B701F9
:10503000A60148515C4F6F4F7F4F40938A055093B4
:105040008B0560938C0570938D05C9CF4091C40486
:105050005091C5046091C6047091C70484179507E8
:10506000A607B70708F456C0E091CC04F091CD0430
:10507000309709F44FC019956115710581059105A7
:1050800039F16093C8047093C9048093CA04909363
:10509000CB04DC01CB01845D9E4FAF4FBF4F8093AB
:1050A000C4049093C504A093C604B093C70482E0DF
:1050B00090E09093CF048093CE040E94731B609382
:1050C0008A0570938B0580938C0590938D0522C083
:1050D0008091C8049091C904A091CA04B091CB04F6
:1050E000845D9E4FAF4FBF4F8093C4049093C5041F
:1050F000A093C604B093C70481E090E02091CE0451
:105100003091CF04232B11F480E090E09093CF04F2
:105110008093CE046091C8047091C9048091CA0440
:105120009091CB041F910F91FF90EF90DF90CF9063
:105130000895CF93C82F462F61E070E00E94711C44
:1051400061E070E08C2F0E948D1C8111F9CFCF910E
:105150000895FF920F931F93CF93DF931F92CDB7C4
:10516000DEB7F82E8A0169830E947A1C80E590E000
:1051700064D76981462F60E070E08F2D0E94711C1A
:105180000115110551F40091990710919A070F5FCD
:105190001F4F10939A0700939907412F64E070E026
:1051A0008F2D0E94711C402F65E070E08F2D0E94B2
:1051B000711C61E070E08F2DBCDF3ED781E00F9065
:1051C000DF91CF911F910F91FF9008959F92AF9221
:1051D000BF92CF92DF92EF92FF920F931F93CF93E4
:1051E000DF93982E8B015A01690164E270E00E94FE
:1051F0008D1CE82EF12C65E270E0892D0E948D1C3B
:10520000FE2CEE24E82AE701C00FD11F9E01377063
:10521000E92CF12CC701880F991FAC0142575A4F56
:105220007A01FA0180819181820F931FA9014C0DAF
:105230005D1D4130584090F000E018E0021B130B58
:10524000A801B5010E94F31BA601401B510BB5013B
:10525000600F711FF7018081918102C0A601B50125
:105260000E94F31BCC0DDD1D4D2F64E270E0892DF3
:105270000E94711C4C2F65E270E0892DDF91CF9167
:105280001F910F91FF90EF90DF90CF90BF90AF9064
:105290009F900C94711CFF920F931F93CF93DF93F9
:1052A000F82EC0E0D0E08F2D0E94E31C8C01892BEA
:1052B00021F08F2D0E94E31CEC01C017D10799F754
:1052C000CE01DF91CF911F910F91FF9008958F92A2
:1052D0009F92AF92BF92CF92DF92EF92FF920F9385
:1052E0001F93CF93DF93B82E4B018A01A22E68E261
:1052F00070E00E948D1CC82FD0E069E270E08B2D19
:105300000E948D1CDC2FCC27C82B9E013770CB2C24
:10531000D12CC601880F991FAC014A565A4F6A0119
:10532000FA0180819181820F931FA801420F531FC0
:105330004130584098F060E078E07B01E21AF30ACF
:10534000A701B4010E94C91BA8014E195F09B4014D
:105350006E0D7F1DF6018081918102C0A801B4010C
:105360000E94C91BA1100EC0C00FD11F4D2F68E2B3
:1053700070E08B2D0E94711C4C2F69E270E08B2D28
:105380000E94711CDF91CF911F910F91FF90EF90C0
:10539000DF90CF90BF90AF909F908F900895CF9364
:1053A000DF93DC014E5F5F4FFC019F012A1B3B0B2B
:1053B0009191992339F0EB01C40FD51F98834F5F6A
:1053C0005F4FF3CFCA01821B930B680F791FFB015C
:1053D0003297308331962083CA01DF91CF910895AF
:1053E000CF92DF92EF92FF920F931F93CF93DF93B1
:1053F00000D01F92CDB7DEB79A01E0E0922F9F77E1
:10540000220F232F221F330B31952115310509F06F
:10541000906801E00E0FA1E0B0E0AC0FBD1FAE0F31
:10542000B11DFD0190832115310511F0E02FE6CF6C
:1054300010E0DB01A01BB10B14968C93FE0131969A
:105440006F0180E090E08017910764F4F601F1901D
:105450006F019C01201B310B260F371FF901F582CC
:105460000196F1CF8091490690914A064F5F5F4FB8
:10547000040F151FFC0120813181F9012281338144
:10548000A801BD01F90119957C010E94731B60936D
:10549000CD067093CE068093CF069093D00681E020
:1054A000E016F10609F080E00F900F900F900F903A
:1054B000DF91CF911F910F91FF90EF90DF90CF90F0
:1054C00008958091490690914A06009759F1DC01B0
:1054D000ED91FC910488F589E02D1995811124C086
:1054E0008091E4069091E506892BE1F48DEF9FEF22
:1054F0009093E5068093E4068091490690914A06D0
:10550000DC01ED91FC910284F385E02D19958091E9
:10551000490690914A06DC01ED91FC910288F389DD
:10552000E02D199580E0089581E008950895CF92C7
:10553000DF92EF92FF920F931F93CF93DF936C0153
:105540007A018B01C0E0D0E0CE15DF0589F0D801EB
:105550006D918D01D601ED91FC910190F081E02DCE
:10556000C6011995892B11F47E0102C02196ECCF5A
:10557000C701DF91CF911F910F91FF90EF90DF90C6
:10558000CF900895FC01918D828D981761F0828DE6
:10559000DF01A80FB11D5D968C91928D9F5F9F7367
:1055A000928F90E008958FEF9FEF0895FC01918D09
:1055B000828D981731F0828DE80FF11D858D90E076
:1055C00008958FEF9FEF0895FC01918D228D892F13
:1055D00090E0805C9F4F821B91098F7399270895FB
:1055E0008EE995E0F1DF21E0892B09F420E0822F9C
:1055F0000895FC01848DDF01A80FB11DA35ABF4F90
:105600002C91848D90E001968F739927848FA689C1
:10561000B7892C93A089B1898C9180648C93938DE8
:10562000848D981306C00288F389E02D80818F7DD8
:1056300080830895EF92FF920F931F93CF93DF9390
:10564000EC0181E0888F9B8D8C8D981305C0E889D3
:10565000F989808185FD23C0F62E0B8D10E00F5F48
:105660001F4F0F731127E02E8C8DE8120BC00FB661
:1056700007FCFACFE889F989808185FFF5CFCE0153
:10568000B8DFF2CF8B8DFE01E80FF11DE35AFF4F1B
:10569000F0820B8FEA89FB898081806207C0EE89E6
:1056A000FF896083E889F98980818064808381E053
:1056B00090E0DF91CF911F910F91FF90EF900895AF
:1056C000CF93DF93EC01888D8823C1F0EA89FB89B1
:1056D000808185FD05C0A889B9898C9186FD0EC0A1
:1056E0000FB607FCF5CF808185FFF2CFA889B98975
:1056F0008C9185FFEDCFCE017CDFE8CFDF91CF919C
:10570000089580E090E0892B19F06ADF811125C0AF
:1057100080E090E0892B41F080E090E0892B21F03F
:105720000E94000081111CC080E090E0892B41F0B4
:1057300080E090E0892B21F00E940000811113C0CD
:1057400080E090E0892BA1F080E090E0892B81F04F
:105750000E94000081110AC008950E940000D8CF65
:105760000E940000E1CF0E940000EACF0C940000EC
:1057700008950E94DD46CF93DF93EC0188819981E3
:10578000009711F00E946145198218821D821C82C7
:105790001B821A82DF91CF9108950F931F93CF93AD
:1057A000DF93EC0188819981009729F02A813B8160
:1057B0002617370788F48B016F5F7F4F0E94F945EA
:1057C000009761F0998388831B830A832C813D8134
:1057D000232B11F4FC01108281E001C080E0DF91F5
:1057E000CF911F910F910895EF92FF920F931F9306
:1057F000CF93DF93EC017B018A01BA01CEDF8111E7
:1058000003C0CE01B8DF07C01D830C83B7018881B8
:1058100099810E940B47CE01DF91CF911F910F918B
:10582000FF90EF900895AF92BF92CF92DF92EF92E8
:10583000FF920F931F93CF93DF93DC01CD90DC9009
:105840001197C114D10409F442C01496CD91DC9192
:1058500015972097E1F18C0156017501BFEFAB1A46
:10586000BB0AF7018081082E000C990B0E94CE47DD
:10587000892B99F72197CC0DDD1D8881082E000C0E
:10588000990B0E94CE47892B91F4AE014F5F5F4F79
:105890004E195F09D80115965C934E931497CE1458
:1058A000DF0450F4B701C6010E94EE4605C0CE15D4
:1058B000DF0558F32197E1CFD801ED91FC911197C5
:1058C00014968D919C911597E80FF91F1082DF9126
:1058D000CF911F910F91FF90EF90DF90CF90BF90ED
:1058E000AF900895EF92FF920F931F93CF93DF93A2
:1058F000FC01248135816115710511F480E018C027
:1059000041155105A1F07B01EC018A01020F131F23
:10591000B80143DF882391F3288139818C819D81EF
:10592000B701820F931F0E940B471D830C8381E0F8
:10593000DF91CF911F910F91FF90EF900895CF933A
:10594000DF93EC01FB014481558160817181CADFE5
:10595000811102C0CE010FDFCE01DF91CF910895FA
:10596000CF93DF93EC016115710551F0FB010190BC
:105970000020E9F73197AF01461B570B35DF01C017
:10598000FADECE01DF91CF910895CF93DF93EC0142
:10599000FB018617970751F06081718161157105D0
:1059A00021F04481558120DF01C0E5DECE01DF9189
:1059B000CF9108950F931F93CF93DF938C01EB0149
:1059C000FC01808191810097B1F068817981611536
:1059D000710579F0428153812C813D814217530733
:1059E00040F00E940B478C819D81F8019583848350
:1059F00013C00E94614588819981F8019183808359
:105A00008A819B81938382838C819D81958384830A
:105A1000198218821B821A821D821C82DF91CF910B
:105A20001F910F910895FC01808191810C94614533
:105A30000F931F93CF93DF93CDB7DEB762970FB667
:105A4000F894DEBF0FBECDBF8C01CB01F8011182EF
:105A50001082138212821582148250E0BE016F5FA1
:105A60007F4F0E947647BE016F5F7F4FC80178DF8E
:105A700062960FB6F894DEBF0FBECDBFDF91CF9117
:105A80001F910F9108950F931F93CF93DF93CDB77D
:105A9000DEB729970FB6F894DEBF0FBECDBF8C01DD
:105AA000862FF801118210821382128215821482CD
:105AB00050E0BE016F5F7F4F90E00E94AB47BE0198
:105AC0006F5F7F4FC8014CDF29960FB6F894DEBF99
:105AD0000FBECDBFDF91CF911F910F910895CF934E
